{
  "contractName": "SimpleLending",
  "abi": [
    {
      "inputs": [
        {
          "internalType": "address",
          "name": "_token",
          "type": "address"
        }
      ],
      "stateMutability": "nonpayable",
      "type": "constructor"
    },
    {
      "inputs": [
        {
          "internalType": "address",
          "name": "",
          "type": "address"
        }
      ],
      "name": "deposits",
      "outputs": [
        {
          "internalType": "uint256",
          "name": "",
          "type": "uint256"
        }
      ],
      "stateMutability": "view",
      "type": "function",
      "constant": true
    },
    {
      "inputs": [],
      "name": "token",
      "outputs": [
        {
          "internalType": "contract ERC20",
          "name": "",
          "type": "address"
        }
      ],
      "stateMutability": "view",
      "type": "function",
      "constant": true
    },
    {
      "inputs": [
        {
          "internalType": "uint256",
          "name": "amount",
          "type": "uint256"
        }
      ],
      "name": "deposit",
      "outputs": [],
      "stateMutability": "nonpayable",
      "type": "function"
    },
    {
      "inputs": [
        {
          "internalType": "uint256",
          "name": "amount",
          "type": "uint256"
        }
      ],
      "name": "withdraw",
      "outputs": [],
      "stateMutability": "nonpayable",
      "type": "function"
    }
  ],
  "bytecode": "0x608060405234801561000f575f80fd5b5060405161044138038061044183398101604081905261002e91610052565b5f80546001600160a01b0319166001600160a01b039290921691909117905561007f565b5f60208284031215610062575f80fd5b81516001600160a01b0381168114610078575f80fd5b9392505050565b6103b58061008c5f395ff3fe608060405234801561000f575f80fd5b506004361061004a575f3560e01c80632e1a7d4d1461004e578063b6b55f2514610063578063fc0c546a14610076578063fc7e286d146100a5575b5f80fd5b61006161005c3660046102dc565b6100d2565b005b6100616100713660046102dc565b610201565b5f54610088906001600160a01b031681565b6040516001600160a01b0390911681526020015b60405180910390f35b6100c46100b33660046102f3565b60016020525f908152604090205481565b60405190815260200161009c565b335f9081526001602052604090205481111561012c5760405162461bcd60e51b8152602060048201526014602482015273496e73756666696369656e742062616c616e636560601b60448201526064015b60405180910390fd5b335f908152600160205260408120805483929061014a908490610334565b90915550505f5460405163a9059cbb60e01b8152336004820152602481018390526001600160a01b039091169063a9059cbb906044016020604051808303815f875af115801561019c573d5f803e3d5ffd5b505050506040513d601f19601f820116820180604052508101906101c0919061034d565b6101fe5760405162461bcd60e51b815260206004820152600f60248201526e151c985b9cd9995c8819985a5b1959608a1b6044820152606401610123565b50565b5f546040516323b872dd60e01b8152336004820152306024820152604481018390526001600160a01b03909116906323b872dd906064016020604051808303815f875af1158015610254573d5f803e3d5ffd5b505050506040513d601f19601f82011682018060405250810190610278919061034d565b6102b65760405162461bcd60e51b815260206004820152600f60248201526e151c985b9cd9995c8819985a5b1959608a1b6044820152606401610123565b335f90815260016020526040812080548392906102d490849061036c565b909155505050565b5f602082840312156102ec575f80fd5b5035919050565b5f60208284031215610303575f80fd5b81356001600160a01b0381168114610319575f80fd5b9392505050565b634e487b7160e01b5f52601160045260245ffd5b8181038181111561034757610347610320565b92915050565b5f6020828403121561035d575f80fd5b81518015158114610319575f80fd5b808201808211156103475761034761032056fea2646970667358221220adbe7218043094c84497827d0ea4f8eccd8ada93b54d67a158dff362cffa82ff64736f6c63430008140033",
  "immutableReferences": {},
  "source": "// contracts/Lending.sol\npragma solidity ^0.8.0;\nimport \"@openzeppelin/contracts/token/ERC20/ERC20.sol\";\n\ncontract SimpleLending {\n    ERC20 public token;\n    mapping(address => uint256) public deposits;\n\n    constructor(address _token) {\n        token = ERC20(_token);\n    }\n\n    function deposit(uint256 amount) external {\n        require(token.transferFrom(msg.sender, address(this), amount), \"Transfer failed\");\n        deposits[msg.sender] += amount;\n    }\n\n    function withdraw(uint256 amount) external {\n        require(deposits[msg.sender] >= amount, \"Insufficient balance\");\n        deposits[msg.sender] -= amount;\n        require(token.transfer(msg.sender, amount), \"Transfer failed\");\n    }\n}\n\n",
  "sourcePath": "/Users/juliano/defi-project/contracts/Lending.sol",
  "compiler": {
    "name": "solc",
    "version": "0.8.20+commit.a1b79de6.Emscripten.clang"
  },
  "schemaVersion": "3.4.16",
  "updatedAt": "2024-10-10T13:07:56.610Z",
  "networkType": "ethereum",
  "devdoc": {
    "kind": "dev",
    "methods": {},
    "version": 1
  },
  "userdoc": {
    "kind": "user",
    "methods": {},
    "version": 1
  }
}