{
  "contractName": "Staking",
  "abi": [
    {
      "inputs": [
        {
          "internalType": "address",
          "name": "_stakingToken",
          "type": "address"
        }
      ],
      "stateMutability": "nonpayable",
      "type": "constructor"
    },
    {
      "inputs": [],
      "name": "rewardRate",
      "outputs": [
        {
          "internalType": "uint256",
          "name": "",
          "type": "uint256"
        }
      ],
      "stateMutability": "view",
      "type": "function",
      "constant": true
    },
    {
      "inputs": [
        {
          "internalType": "address",
          "name": "",
          "type": "address"
        }
      ],
      "name": "rewards",
      "outputs": [
        {
          "internalType": "uint256",
          "name": "",
          "type": "uint256"
        }
      ],
      "stateMutability": "view",
      "type": "function",
      "constant": true
    },
    {
      "inputs": [
        {
          "internalType": "address",
          "name": "",
          "type": "address"
        }
      ],
      "name": "stakedAmounts",
      "outputs": [
        {
          "internalType": "uint256",
          "name": "",
          "type": "uint256"
        }
      ],
      "stateMutability": "view",
      "type": "function",
      "constant": true
    },
    {
      "inputs": [],
      "name": "stakingToken",
      "outputs": [
        {
          "internalType": "contract ERC20",
          "name": "",
          "type": "address"
        }
      ],
      "stateMutability": "view",
      "type": "function",
      "constant": true
    },
    {
      "inputs": [
        {
          "internalType": "uint256",
          "name": "amount",
          "type": "uint256"
        }
      ],
      "name": "stake",
      "outputs": [],
      "stateMutability": "nonpayable",
      "type": "function"
    },
    {
      "inputs": [],
      "name": "claimRewards",
      "outputs": [],
      "stateMutability": "nonpayable",
      "type": "function"
    }
  ],
  "bytecode": "0x60806040526064600355348015610014575f80fd5b506040516103ce3803806103ce83398101604081905261003391610057565b5f80546001600160a01b0319166001600160a01b0392909216919091179055610084565b5f60208284031215610067575f80fd5b81516001600160a01b038116811461007d575f80fd5b9392505050565b61033d806100915f395ff3fe608060405234801561000f575f80fd5b5060043610610060575f3560e01c80630700037d1461006457806310c1c10314610096578063372500ab146100b557806372f702f3146100bf5780637b0a47ee146100e9578063a694fc3a146100f2575b5f80fd5b610083610072366004610260565b60026020525f908152604090205481565b6040519081526020015b60405180910390f35b6100836100a4366004610260565b60016020525f908152604090205481565b6100bd610105565b005b5f546100d1906001600160a01b031681565b6040516001600160a01b03909116815260200161008d565b61008360035481565b6100bd61010036600461028d565b610192565b335f818152600260205260408082208054908390559154905163a9059cbb60e01b815260048101939093526024830182905290916001600160a01b039091169063a9059cbb906044016020604051808303815f875af115801561016a573d5f803e3d5ffd5b505050506040513d601f19601f8201168201806040525081019061018e91906102a4565b5050565b5f546040516323b872dd60e01b8152336004820152306024820152604481018390526001600160a01b03909116906323b872dd906064016020604051808303815f875af11580156101e5573d5f803e3d5ffd5b505050506040513d601f19601f8201168201806040525081019061020991906102a4565b50335f90815260016020526040812080548392906102289084906102d7565b909155505060035461023a90826102f0565b335f90815260026020526040812080549091906102589084906102d7565b909155505050565b5f60208284031215610270575f80fd5b81356001600160a01b0381168114610286575f80fd5b9392505050565b5f6020828403121561029d575f80fd5b5035919050565b5f602082840312156102b4575f80fd5b81518015158114610286575f80fd5b634e487b7160e01b5f52601160045260245ffd5b808201808211156102ea576102ea6102c3565b92915050565b80820281158282048414176102ea576102ea6102c356fea2646970667358221220743d49fde83cef47f32185006d43ee52c16572654a3c58da7cc52ff43a461ff264736f6c63430008140033",
  "immutableReferences": {},
  "source": "// contracts/Staking.sol\npragma solidity ^0.8.0;\nimport \"@openzeppelin/contracts/token/ERC20/ERC20.sol\";\n\ncontract Staking {\n    ERC20 public stakingToken;\n    mapping(address => uint256) public stakedAmounts;\n    mapping(address => uint256) public rewards;\n\n    uint256 public rewardRate = 100;\n\n    constructor(address _stakingToken) {\n        stakingToken = ERC20(_stakingToken);\n    }\n\n    function stake(uint256 amount) public {\n        stakingToken.transferFrom(msg.sender, address(this), amount);\n        stakedAmounts[msg.sender] += amount;\n        rewards[msg.sender] += amount * rewardRate;\n    }\n\n    function claimRewards() public {\n        uint256 reward = rewards[msg.sender];\n        rewards[msg.sender] = 0;\n        stakingToken.transfer(msg.sender, reward);\n    }\n}\n\n",
  "sourcePath": "/Users/juliano/defi-project/contracts/Staking.sol",
  "compiler": {
    "name": "solc",
    "version": "0.8.20+commit.a1b79de6.Emscripten.clang"
  },
  "schemaVersion": "3.4.16",
  "updatedAt": "2024-10-10T13:07:56.646Z",
  "networkType": "ethereum",
  "devdoc": {
    "kind": "dev",
    "methods": {},
    "version": 1
  },
  "userdoc": {
    "kind": "user",
    "methods": {},
    "version": 1
  }
}